:03000D00000000F0
:02063B008F1915
:10063D00781A7C007D007BFF7A00790D7E007F03A8
:10064D001200F6751AAA85191B7B007A00791A7D9E
:04065D00030205810E
:0B067F007F607EEA12068A7F607EEA40
:0B068A00EF1FAC0670011E4C70F62242
:10035000E4F509F50A7F807E25FDFC12060D1206E4
:100360007F12067F7F3812063BE55660FCE4F509F4
:10037000F50AE55A2404FFE433FEC3E50A9FEE6460
:1003800080F8748098500E7457250AF8E62509F510
:1003900009050A80DD7457250AF8E665097049E504
:1003A0005BF50BE55CF50CE55DF50DE55EF50EE541
:1003B0005FF50FE560F510E561F511E562F512E511
:1003C00063F513E564F514E565F515E566F516E5E1
:1003D00067F517E568F5187B007A00795BE55954F5
:0E03E0001FF51D7D0F120515E4F55602036989
:1005D400015500014000144100000000000000002B
:0C05E4000000000000000000000000000B
:03001300020010D8
:0100100032BD
:030023000203EEE7
:1003EE00C0E0C0F0C083C082C0D075D000C000C0D5
:0D03FE0001C002C003C004C005C006C00756
:10040B00750800309905C299756B00309855AF404F
:10041B00054074412FF8A699C298E541645A6003D0
:10042B00754000E540B40209E542645A600375402B
:10043B0000E540D39403402BE5442405FFE433FE51
:10044B00E540B5071EE4B5061AE556701378577CE0
:10045B0000FDFB7A007941FE7F141200F675560100
:03046B00754000D9
:10046E00D007D006D005D004D003D002D001D000E2
:0B047E00D0D0D082D083D0F0D0E0328C
:100661000000000000000000000000000000000089
:0E06710000000000000000000000000000007B
:1005F000016B0001560014570000000000000000CD
:0C060000000000000000000000000000EE
:10060D008F1C8E1B8D1A8C19759850438920AB1C2D
:10061D00AA1BA91AA819E47F807E70FDFC1201F0B7
:0E062D00EFF404F58DF58B43884043A890222E
:0A000300E56B70FC8F99756B01220C
:060581008B3C8A3D893E1F
:10058700E4F53FE53FC39D5043ED14FFE53FC39FAF
:100597005022AB3CAA3DA93E853F827583001201DC
:1005A7001CFFED75830024FFF582E58334FFF58397
:1005B700EF120149AB3CAA3DA93EAF3F053F8F82F1
:0C05C70075830012011CFF12000380B7B6
:0105D3002205
:080515008B198A1A891B8D1C49
:10051D00781E7C007D007BFF7A0679617E007F1E50
:10052D001200F6E4FF0F241EF8765A0F741E2401F4
:10053D00F8765A0F741E2402F8A61D0F741E24039C
:10054D00F8A61CE4FEEEC3951C501BAB19AA1AA904
:10055D001B8E8275830012011CFDAC070F741E2CBF
:10056D00F8A6050E80DF7B007A00791EE51C2405B8
:04057D00FD020581F5
:0802AE008B6C8A6D896E8D6F67
:1002B600E4F57EFDE56F75F002A42405FFE435F054
:1002C600FE7B007A007971120282AF7E057E747120
:1002D6002FF8765AAF7E057E74712FF8765AAF7E68
:1002E600057E74712FF8A670E56F25E0FFAE7E05DA
:1002F6007E74712EF8A607E4FDEDC3956F503BABF7
:100306006CAA6DA96E75F002EDA4F58285F08312D4
:10031600017CE5F0FFAE7E057E74712EF8A60775AA
:10032600F002EDA4F58285F08312017CFFAE7E0516
:100336007E74712EF8A6070D80BF7B007A00797156
:0A034600E56F25E02405FD020581A6
:030000000204896E
:0C048900787FE4F6D8FD75817E0204D077
:10002600E709F608DFFA8046E709F208DFFA803EBC
:1000360088828C83E709F0A3DFFA8032E309F608A9
:10004600DFFA8078E309F208DFFA807088828C8311
:10005600E309F0A3DFFA806489828A83E0A3F608C5
:10006600DFFA805889828A83E0A3F208DFFA804C9F
:1000760080D280FA80C680D4806980F28033801076
:1000860080A680EA809A80A880DA80E280CA8033DF
:1000960089828A83ECFAE493A3C8C582C8CCC58357
:1000A600CCF0A3C8C582C8CCC583CCDFE9DEE78027
:1000B6000D89828A83E493A3F608DFF9ECFAA9F0A6
:1000C600EDFB2289828A83ECFAE0A3C8C582C8CCFC
:1000D600C583CCF0A3C8C582C8CCC583CCDFEADE15
:1000E600E880DB89828A83E493A3F208DFF980CC77
:1000F60088F0EF60010E4E60C388F0ED2402B40470
:100106000050B9F582EB2402B4040050AF23234516
:06011600822390007673C5
:10011C00BB010CE58229F582E5833AF583E0225098
:10012C0006E92582F8E622BBFE06E92582F8E222E2
:0D013C00E58229F582E5833AF583E49322FC
:10014900BB010FF8E58229F582E5833AF583E028BA
:10015900F0225009C58229F8E58226F622BBFE095C
:10016900C58229F8E22582F222F8EA2583F583E996
:03017900932822A6
:10017C00BB0110E58229F582E5833AF583E0F5F0C1
:10018C00A3E0225009E92582F886F008E622BBFE9E
:10019C000AE92582F8E2F5F008E222E5832AF583E4
:0801AC00E993F5F0A3E99322A9
:1001B40075F008758200EF2FFFEE33FECD33CDCC02
:1001C40033CCC58233C5829BED9AEC99E582984085
:1001D4000CF582EE9BFEED9AFDEC99FC0FD5F0D662
:1001E400E4CEFBE4CDFAE4CCF9A88222B800C1B98C
:1001F4000059BA002DEC8BF084CFCECDFCE5F0CBCA
:10020400F97818EF2FFFEE33FEED33FDEC33FCEB02
:1002140033FB10D703994004EB99FB0FD8E5E4F9BD
:10022400FA227818EF2FFFEE33FEED33FDEC33FCAA
:10023400C933C910D7059BE99A4007EC9BFCE99A9E
:10024400F90FD8E0E4C9FAE4CCFB2275F010EF2FE3
:10025400FFEE33FEED33FDCC33CCC833C810D707E3
:100264009BEC9AE899400AED9BFDEC9AFCE899F81E
:0E0274000FD5F0DAE4CDFBE4CCFAE4C8F922B1
:10028200EF4E6012EF60010EEDBB010B89828A8393
:10029200F0A3DFFCDEFA2289F05007F709DFFCA9A0
:0C02A200F022BBFEFCF309DFFCA9F022F7
:10049500020350E493A3F8E493A34003F68001F22A
:1004A50008DFF48029E493A3F85407240CC8C33368
:1004B500C4540F4420C8834004F456800146F6DF37
:1004C500E4800B01020408102040809005D4E47EEE
:1004D500019360BCA3FF543F30E509541FFEE4932C
:1004E500A360010ECF54C025E060A840B8E493A3F3
:1004F500FAE493A3F8E493A3C8C582C8CAC583CA1E
:10050500F0A3C8C582C8CAC583CADFE9DEE780BED5
:01060C0000ED
:00000001FF
