:020000040800F2
:100000005004002001010008BF030008B7030008E6
:10001000BB030008990200087509000800000000F1
:10002000000000000000000000000000650500085E
:100030009D020008000000006D0400087906000819
:100040001B0100081B0100081B0100081B01000820
:100050001B0100081B0100081B0100081B01000810
:100060001B0100081B0100081B0100081B01000800
:100070001B0100081B0100081B0100081B010008F0
:100080001B0100081B0100081B0100081B010008E0
:100090001B0100081B0100081B0100089F0200084B
:1000A0001B0100081B0100081B0100081B010008C0
:1000B0001B0100081B0100081B0100081B010008B0
:1000C0001B0100081B0100081B0100081B010008A0
:1000D0001B010008DD0600081B0100081B010008C9
:1000E0001B0100081B0100081B010008DFF80CD0F1
:1000F00000F0C0F8004800479D0A000850040020A6
:100100000648804706480047FEE7FEE7FEE7FEE7B1
:10011000FEE7FEE7FEE7FEE7FEE7FEE77D060008F6
:10012000ED00000840EA01039B0703D009E008C97D
:10013000121F08C0042AFAD203E011F8013B00F8AC
:10014000013B521EF9D27047D2B201E000F8012BF8
:10015000491EFBD270470022F6E710B513460A4647
:1001600004461946FFF7F0FF204610BD30B480EA80
:10017000010202F0004530F0004221F0004013D0AF
:1001800090B1C30DD40DC2F31601C0F31600E41AEA
:1001900041F4000140F400027D34914201D3641C1B
:1001A00000E04900002C02DA30BC002070474FF418
:1001B00000000023914201D3891A034340084FEA0B
:1001C0004101F7D151B1914202D14FF0004105E018
:1001D00002D24FF0010101E06FF0010103EBC450C6
:1001E000284430BC00F00EB8C10F80EAE07008442B
:1001F000CA079623002100F00EB89623002211466C
:1002000000F009B80029A8BF7047401C490008BF8A
:1002100020F00100704710B4B0FA80FC00FA0CF036
:1002200050EA010404BF10BC704749B1CCF120046E
:1002300021FA04F411FA0CF118BF012121430843FB
:10024000A3EB0C01CB1D4FEA00614FEA102042BF27
:10025000002010BC704700EBC35010440029A4BF1D
:1002600010BC7047401C490008BF20F0010010BCC2
:1002700070470000064C074D06E0E06840F00103BF
:1002800094E8070098471034AC42F6D3FFF732FFEA
:10029000800C0008A00C000800BFFEE77047704704
:1002A0002DE9F0410246002500260020002300240D
:1002B000002791F803C00CF00F0591F803C00CF073
:1002C000100CBCF1000F03D091F802C04CEA0505F8
:1002D00091F800C0BCF1000F31D0146800202BE071
:1002E0004FF0010C0CFA00F3B1F800C00CEA030661
:1002F0009E4220D183004FF00F0C0CFA03F7BC4351
:1003000005FA03FC4CEA040491F803C0BCF1280F81
:1003100006D14FF0010C0CFA00FCC2F814C00AE040
:1003200091F803C0BCF1480F05D14FF0010C0CFA55
:1003300000FCC2F810C0401C0828D1D31460B1F8EA
:1003400000C0BCF1FF0F34DD546800202EE000F146
:10035000080C4FF0010808FA0CF3B1F800C00CEAE1
:1003600003069E4221D183004FF00F0C0CFA03F7D5
:10037000BC4305FA03FC4CEA040491F803C0BCF149
:10038000280F05D100F1080C08FA0CF8C2F8148007
:1003900091F803C0BCF1480F07D100F1080C4FF0F1
:1003A000010808FA0CF8C2F81080401C0828CED3C7
:1003B0005460BDE8F08100BFFEE700BFFEE7704774
:1003C00008B54FF4A06000F047F825208DF8000034
:1003D00000208DF801008DF8020001208DF8030047
:1003E000684600F001F808BD70B5002100230F2217
:1003F000C47804B3154C246804F4E064C4F5E064E4
:10040000210AC1F10403CA40447804FA03F1847854
:100410001440214309010E4C0678A155047804F0DC
:100420001F050124AC4005786D11AD0005F1E025F4
:10043000C5F8004109E0047804F01F050124AC4030
:10044000044D0678761145F8264070BD0CED00E0AD
:1004500000E400E080E100E002490143024A11604B
:10046000704700000000FA050CED00E07047000046
:1004700029B1064A92690243044B9A6104E0034A97
:1004800092698243014B9A6170470000001002405C
:1004900030B500210022002400232D4D6D6805F0A9
:1004A0000C0121B1042905D0082923D105E0294DEB
:1004B000056022E0274D05601FE0254D6D6805F4BD
:1004C0007012234D6D6805F48034022505EB9242CD
:1004D0001CB9214D554305600BE01D4D6D6805F4B9
:1004E00000351DB11C4D5543056002E0194D5543C3
:1004F000056002E0174D056000BF00BF144D6D6838
:1005000005F0F0010909154D6B5C0568DD4045609B
:100510000F4D6D6805F4E061090A104D6B5C45688C
:10052000DD4085600A4D6D6805F46051C90A0B4DC8
:100530006B5C4568DD40C560054D6D6805F4404164
:10054000890B074D6B5CC568B5FBF3F5056130BDE4
:100550000010024000127A0000093D000000002057
:1005600010000020704710B500F002F810BD000028
:100570000CB50020019000903348006840F48030B2
:100580003149086000BF3048006800F40030009036
:100590000198401C0190009818B90198B0F5A06F1F
:1005A000F1D12948006800F4003010B1012000901A
:1005B00001E0002000900098012843D12348006802
:1005C00040F01000214908600846006820F0030050
:1005D00008600846006840F0020008601A48406859
:1005E000194948600846406848600846406840F439
:1005F000806048600846406820F47C1048600846E7
:10060000406840F4E81048600846006840F0807098
:10061000086000BF0C48006800F000700028F9D0A6
:100620000948406820F003000749486008464068D0
:1006300040F00200486000BF0348406800F00C0032
:100640000828F9D10CBD0000001002400020024033
:10065000042808D14FF0E021096941F004014FF06E
:10066000E022116107E04FF0E021096921F0040167
:100670004FF0E022116170477047000010B5134839
:10068000006840F0010011490860084640681049C0
:1006900008400E494860084600680E4908400B496A
:1006A00008600846006820F480200860084640681A
:1006B00020F4FE0048604FF41F008860FFF753FFEE
:1006C0004FF000600449086010BD000000100240B7
:1006D0000000FFF8FFFFF6FE08ED00E010B540F265
:1006E00025511F4800F06FF8002836D01C4800F054
:1006F00025F9C1B21B4802780078401C194B1870CC
:100700001948815400785A2802D0002019460870F0
:1007100014480078022806D1134840785A2802D09D
:100720000020104908700F480078032815DD0E4896
:10073000C078401D0B490978884200D010BD0B4895
:10074000007838B9142208490948FFF7EBFC01206A
:100750000649087000200349087000BFEEE700005A
:100760000038014015000020300000201400002057
:100770001C00002010B5044600BF4021044800F0D2
:1007800015F80028F9D00248001D048010BD0000B3
:100790000038014021B1828942F40052828104E094
:1007A00082894DF6FF731A4082817047024600200D
:1007B000B1F5007F00D100BF13880B400BB10120C1
:1007C00000E00020704770B5024600240023002599
:1007D000002040F66A16B14200D100BFC1F34215B5
:1007E00001F01F03012606FA03F3012D02D19689B9
:1007F000334006E0022D02D1168A334001E0968A8A
:1008000033400C12012606FA04F41688344013B162
:100810000CB1012000E0002070BDF0B503460024BB
:1008200000260025002040F66A17B94200D100BF1B
:100830001846C1F3421401F01F06012707FA06F516
:10084000012C01D10C3004E0022C01D1103000E069
:1008500014301AB107682F43076002E00768AF43FE
:100860000760F0BD2DE9F04786B005460E4600242E
:10087000A24600BFA1460027B08900B100BF2F46A5
:100880002C8A4CF6FF700440F08804432C82AC891B
:100890004EF6F3100440B08831890843718908434B
:1008A0000443AC81AC8A4FF6FF400440B089044356
:1008B000AC8201A8FFF7ECFD1F48874202D1DDF8AA
:1008C00010A001E0DDF80CA0A88900F4004040B1C0
:1008D0000AEBCA0000EB0A1031684900B0FBF1F8DE
:1008E00007E00AEBCA0000EB0A1031688900B0FB90
:1008F000F1F86420B8FBF0F004012009642101FB49
:100900001089A88900F4004040B1322000EBC900F2
:10091000B0FBF1F000F00700044308E0322000EBE8
:1009200009106421B0FBF1F000F00F0004432C81AA
:1009300006B0BDE8F0870000003801400146888815
:10094000C0F30800704770B504460D4600260EE05F
:10095000681EB04205DD205CA15D0844C1B2681E7E
:1009600021543146721CD6B2605CFFF703FFAE42E1
:10097000EEDB70BD00BFFEE710B586B00446012176
:100980008803FFF775FD01210420FFF771FD4FF487
:100990000070ADF8140003208DF8160018208DF8B3
:1009A000170005A91548FFF77BFC4FF48060ADF8F0
:1009B000140004208DF8170005A91048FFF770FCFB
:1009C00001940020ADF80800ADF80A00ADF80C0065
:1009D000ADF810000C20ADF80E0001A90848FFF793
:1009E00041FF012240F225510548FFF716FF012182
:1009F0000348FFF7CFFE06B010BD0000000801401D
:100A00000038014002E008C8121F08C1002AFAD1CC
:100A100070477047002001E001C1121F002AFBD17E
:100A20007047000010B504466FF00400FFF710FE99
:100A3000E11704EB5171C1F3C701074A1170104669
:100A4000007800EB4001C1EBC0104FF6FF7101EAE6
:100A5000C0000249088010BD1600002018000020C8
:100A600001460D4A12884A434FF0E0235A610022A2
:100A70009A6101221A6100BF4FF0E022106900F074
:100A800001021AB100F48032002AF5D000224FF0A2
:100A9000E0231A619A6170471800002088B0002591
:100AA000002400BF4820FFF7BDFFFFF789FC4FF48B
:100AB000E130FFF761FF4FF47A70FFF7D1FF382084
:100AC00000F0CFF894E04B4800780028FAD00025D9
:100AD000002405E04848005D2844C5B2601CC4B24B
:100AE0004548C078001DA042F4DC4348005DA842A0
:100AF0007BD1414840794049097940EA012000B260
:100B0000ADF810003C48C0793B49897940EA0120A2
:100B100000B2ADF812003848407A3749097A40EA05
:100B2000012000B2ADF814003348C07A3249897A06
:100B300040EA012000B2ADF816002F48407B2E4954
:100B4000097B40EA012000B2ADF818002A48C07BBA
:100B50002949897B40EA012000B2ADF81A002648F5
:100B6000407C2549097C40EA012000B2ADF81C0018
:100B7000BDF8101088B2FFF740FB0646BDF9120021
:100B8000FFF732FB0646BDF91400FFF72DFB0646C2
:100B9000BDF91600FFF728FB06461849FFF7E6FAED
:100BA0000090BDF91800FFF71FFB06461349FFF739
:100BB000DDFA0190BDF91A00FFF716FB06460F4952
:100BC000FFF7D4FA0290BDF91C00FFF70DFB0646B3
:100BD0000A49FFF7CBFA03900748807800F01F021C
:100BE0000F210548001D00F00BF800200149087096
:100BF00069E70000140000201C00002000401C4693
:100C00002DE9F04188B007460D4690462021684600
:100C1000FFF7A1FA002400265A222146641C0DF891
:100C200001202146641C0DF801202146641C0DF8AA
:100C300001802146641C0DF8015000BF07E0BA5D39
:100C40002046611CCCB20DF80020701CC6B2AE422A
:100C5000F5DB681DC1B26846FFF775FE08B0BDE858
:100C6000F08138B5044600200090AA208DF80000DD
:100C70008DF8014003216846FFF765FE38BD00008E
:100C8000A00C0008000000201C000000040A00085E
:100C9000BC0C00081C00002034040000140A0008EA
:100CA0000000000001020304010203040607080912
:0C0CB00002040608000000000000000024
:04000005080000ED02
:00000001FF
